{
  "_format": "hh-sol-artifact-1",
  "contractName": "WorldCupBet",
  "sourceName": "contracts/WorldCupBet.sol",
  "abi": [
    {
      "inputs": [
        {
          "internalType": "string[16]",
          "name": "_teamList",
          "type": "string[16]"
        }
      ],
      "stateMutability": "nonpayable",
      "type": "constructor"
    },
    {
      "anonymous": false,
      "inputs": [
        {
          "indexed": false,
          "internalType": "uint256",
          "name": "teamId",
          "type": "uint256"
        }
      ],
      "name": "WorldCupBet__setWinner",
      "type": "event"
    },
    {
      "anonymous": false,
      "inputs": [
        {
          "indexed": true,
          "internalType": "address",
          "name": "user",
          "type": "address"
        },
        {
          "indexed": false,
          "internalType": "uint256",
          "name": "amount",
          "type": "uint256"
        },
        {
          "indexed": false,
          "internalType": "uint256",
          "name": "timestamp",
          "type": "uint256"
        }
      ],
      "name": "WorldCupBet__withdrawEarnings",
      "type": "event"
    },
    {
      "anonymous": false,
      "inputs": [
        {
          "indexed": true,
          "internalType": "uint256",
          "name": "teamId",
          "type": "uint256"
        },
        {
          "indexed": true,
          "internalType": "address",
          "name": "user",
          "type": "address"
        },
        {
          "indexed": false,
          "internalType": "uint256",
          "name": "amountBetted",
          "type": "uint256"
        }
      ],
      "name": "WorldCupBet_newBet",
      "type": "event"
    },
    {
      "anonymous": false,
      "inputs": [
        {
          "indexed": false,
          "internalType": "uint256",
          "name": "newDate",
          "type": "uint256"
        }
      ],
      "name": "WorldCup__setDateTheEnd",
      "type": "event"
    },
    {
      "inputs": [
        {
          "internalType": "uint256",
          "name": "teamId",
          "type": "uint256"
        }
      ],
      "name": "bet",
      "outputs": [],
      "stateMutability": "payable",
      "type": "function"
    },
    {
      "inputs": [
        {
          "internalType": "uint256",
          "name": "_id",
          "type": "uint256"
        }
      ],
      "name": "getAmountBettedToTeam",
      "outputs": [
        {
          "internalType": "uint256",
          "name": "",
          "type": "uint256"
        }
      ],
      "stateMutability": "view",
      "type": "function"
    },
    {
      "inputs": [],
      "name": "getTeamList",
      "outputs": [
        {
          "components": [
            {
              "internalType": "uint256",
              "name": "id",
              "type": "uint256"
            },
            {
              "internalType": "string",
              "name": "name",
              "type": "string"
            },
            {
              "internalType": "uint256",
              "name": "amountBetted",
              "type": "uint256"
            }
          ],
          "internalType": "struct WorldCupBet.TeamInfo[16]",
          "name": "",
          "type": "tuple[16]"
        }
      ],
      "stateMutability": "view",
      "type": "function"
    },
    {
      "inputs": [
        {
          "internalType": "address",
          "name": "_user",
          "type": "address"
        }
      ],
      "name": "getUserProceeds",
      "outputs": [
        {
          "internalType": "uint256",
          "name": "",
          "type": "uint256"
        }
      ],
      "stateMutability": "view",
      "type": "function"
    },
    {
      "inputs": [],
      "name": "owner",
      "outputs": [
        {
          "internalType": "address",
          "name": "",
          "type": "address"
        }
      ],
      "stateMutability": "view",
      "type": "function"
    },
    {
      "inputs": [
        {
          "internalType": "uint256",
          "name": "newDate",
          "type": "uint256"
        }
      ],
      "name": "setDateFinish",
      "outputs": [],
      "stateMutability": "nonpayable",
      "type": "function"
    },
    {
      "inputs": [
        {
          "internalType": "uint256",
          "name": "winnerTeamId",
          "type": "uint256"
        }
      ],
      "name": "setWinner",
      "outputs": [],
      "stateMutability": "nonpayable",
      "type": "function"
    },
    {
      "inputs": [
        {
          "internalType": "uint256",
          "name": "",
          "type": "uint256"
        }
      ],
      "name": "teamList",
      "outputs": [
        {
          "internalType": "uint256",
          "name": "id",
          "type": "uint256"
        },
        {
          "internalType": "string",
          "name": "name",
          "type": "string"
        },
        {
          "internalType": "uint256",
          "name": "amountBetted",
          "type": "uint256"
        }
      ],
      "stateMutability": "view",
      "type": "function"
    },
    {
      "inputs": [],
      "name": "totalBettedAmount",
      "outputs": [
        {
          "internalType": "uint256",
          "name": "",
          "type": "uint256"
        }
      ],
      "stateMutability": "view",
      "type": "function"
    },
    {
      "inputs": [],
      "name": "winnerId",
      "outputs": [
        {
          "internalType": "uint256",
          "name": "",
          "type": "uint256"
        }
      ],
      "stateMutability": "view",
      "type": "function"
    },
    {
      "inputs": [],
      "name": "withdraw",
      "outputs": [],
      "stateMutability": "nonpayable",
      "type": "function"
    }
  ],
  "bytecode": "0x608060405263639f3900600155600060025560646003553480156200002357600080fd5b5060405162001be638038062001be68339818101604052810190620000499190620003ca565b336000806101000a81548173ffffffffffffffffffffffffffffffffffffffff021916908373ffffffffffffffffffffffffffffffffffffffff1602179055506200009a81620000a160201b60201c565b506200077c565b60005b60108110156200014957818160108110620000c457620000c36200041b565b5b602002015160048260108110620000e057620000df6200041b565b5b600302016001019081620000f5919062000695565b506000600482601081106200010f576200010e6200041b565b5b600302016002018190555080600482601081106200013257620001316200041b565b5b6003020160000181905550806001019050620000a4565b5050565b6000604051905090565b600080fd5b600080fd5b600080fd5b6000601f19601f8301169050919050565b7f4e487b7100000000000000000000000000000000000000000000000000000000600052604160045260246000fd5b620001b18262000166565b810181811067ffffffffffffffff82111715620001d357620001d262000177565b5b80604052505050565b6000620001e86200014d565b9050620001f68282620001a6565b919050565b600067ffffffffffffffff82111562000219576200021862000177565b5b602082029050919050565b600080fd5b600080fd5b600067ffffffffffffffff8211156200024c576200024b62000177565b5b620002578262000166565b9050602081019050919050565b60005b838110156200028457808201518184015260208101905062000267565b60008484015250505050565b6000620002a7620002a1846200022e565b620001dc565b905082815260208101848484011115620002c657620002c562000229565b5b620002d384828562000264565b509392505050565b600082601f830112620002f357620002f262000161565b5b81516200030584826020860162000290565b91505092915050565b6000620003256200031f84620001fb565b620001dc565b9050806020840283018581111562000342576200034162000224565b5b835b818110156200039057805167ffffffffffffffff8111156200036b576200036a62000161565b5b8086016200037a8982620002db565b8552602085019450505060208101905062000344565b5050509392505050565b600082601f830112620003b257620003b162000161565b5b6010620003c18482856200030e565b91505092915050565b600060208284031215620003e357620003e262000157565b5b600082015167ffffffffffffffff8111156200040457620004036200015c565b5b62000412848285016200039a565b91505092915050565b7f4e487b7100000000000000000000000000000000000000000000000000000000600052603260045260246000fd5b600081519050919050565b7f4e487b7100000000000000000000000000000000000000000000000000000000600052602260045260246000fd5b600060028204905060018216806200049d57607f821691505b602082108103620004b357620004b262000455565b5b50919050565b60008190508160005260206000209050919050565b60006020601f8301049050919050565b600082821b905092915050565b6000600883026200051d7fffffffffffffffffffffffffffffffffffffffffffffffffffffffffffffffff82620004de565b620005298683620004de565b95508019841693508086168417925050509392505050565b6000819050919050565b6000819050919050565b600062000576620005706200056a8462000541565b6200054b565b62000541565b9050919050565b6000819050919050565b620005928362000555565b620005aa620005a1826200057d565b848454620004eb565b825550505050565b600090565b620005c1620005b2565b620005ce81848462000587565b505050565b5b81811015620005f657620005ea600082620005b7565b600181019050620005d4565b5050565b601f82111562000645576200060f81620004b9565b6200061a84620004ce565b810160208510156200062a578190505b620006426200063985620004ce565b830182620005d3565b50505b505050565b600082821c905092915050565b60006200066a600019846008026200064a565b1980831691505092915050565b600062000685838362000657565b9150826002028217905092915050565b620006a0826200044a565b67ffffffffffffffff811115620006bc57620006bb62000177565b5b620006c8825462000484565b620006d5828285620005fa565b600060209050601f8311600181146200070d5760008415620006f8578287015190505b62000704858262000677565b86555062000774565b601f1984166200071d86620004b9565b60005b82811015620007475784890151825560018201915060208501945060208101905062000720565b8683101562000767578489015162000763601f89168262000657565b8355505b6001600288020188555050505b505050505050565b61145a806200078c6000396000f3fe60806040526004361061009c5760003560e01c80637365870b116100645780637365870b146101745780637c21ef1b146101905780638da5cb5b146101cd57806391e0d593146101f85780639f568cf114610223578063a44a44b7146102605761009c565b80630df71602146100a15780631165dce2146100ca57806319aa69b9146100f557806338d05638146101345780633ccfd60b1461015d575b600080fd5b3480156100ad57600080fd5b506100c860048036038101906100c39190610c3e565b61028b565b005b3480156100d657600080fd5b506100df61039f565b6040516100ec9190610e10565b60405180910390f35b34801561010157600080fd5b5061011c60048036038101906101179190610c3e565b610497565b60405161012b93929190610e8b565b60405180910390f35b34801561014057600080fd5b5061015b60048036038101906101569190610c3e565b61054f565b005b34801561016957600080fd5b50610172610662565b005b61018e60048036038101906101899190610c3e565b6107f4565b005b34801561019c57600080fd5b506101b760048036038101906101b29190610f27565b6109d4565b6040516101c49190610f54565b60405180910390f35b3480156101d957600080fd5b506101e2610a6a565b6040516101ef9190610f7e565b60405180910390f35b34801561020457600080fd5b5061020d610a8e565b60405161021a9190610f54565b60405180910390f35b34801561022f57600080fd5b5061024a60048036038101906102459190610c3e565b610a94565b6040516102579190610f54565b60405180910390f35b34801561026c57600080fd5b50610275610afe565b6040516102829190610f54565b60405180910390f35b80601081106102cf576040517f08c379a00000000000000000000000000000000000000000000000000000000081526004016102c690610fe5565b60405180910390fd5b60008054906101000a900473ffffffffffffffffffffffffffffffffffffffff1673ffffffffffffffffffffffffffffffffffffffff163373ffffffffffffffffffffffffffffffffffffffff161461035d576040517f08c379a000000000000000000000000000000000000000000000000000000000815260040161035490611051565b60405180910390fd5b816003819055507fc92b66acdde49f2dc954d9687ee90221de05a7649ccfe7f91e746ef8421a589f826040516103939190610f54565b60405180910390a15050565b6103a7610bb4565b6004601080602002604051908101604052809291906000905b8282101561048e57838260030201604051806060016040529081600082015481526020016001820180546103f3906110a0565b80601f016020809104026020016040519081016040528092919081815260200182805461041f906110a0565b801561046c5780601f106104415761010080835404028352916020019161046c565b820191906000526020600020905b81548152906001019060200180831161044f57829003601f168201915b50505050508152602001600282015481525050815260200190600101906103c0565b50505050905090565b600481601081106104a757600080fd5b600302016000915090508060000154908060010180546104c6906110a0565b80601f01602080910402602001604051908101604052809291908181526020018280546104f2906110a0565b801561053f5780601f106105145761010080835404028352916020019161053f565b820191906000526020600020905b81548152906001019060200180831161052257829003601f168201915b5050505050908060020154905083565b60008054906101000a900473ffffffffffffffffffffffffffffffffffffffff1673ffffffffffffffffffffffffffffffffffffffff163373ffffffffffffffffffffffffffffffffffffffff16146105dd576040517f08c379a00000000000000000000000000000000000000000000000000000000081526004016105d490611051565b60405180910390fd5b80428111610620576040517f08c379a00000000000000000000000000000000000000000000000000000000081526004016106179061111d565b60405180910390fd5b816001819055507f48f586d5274f45e1e0c9637dfd938431431e831244332be96f5b20531b440280826040516106569190610f54565b60405180910390a15050565b60106003541061067157600080fd5b60006004600354601081106106895761068861113d565b5b600302016002015460025460346000600354815260200190815260200160002060003373ffffffffffffffffffffffffffffffffffffffff1673ffffffffffffffffffffffffffffffffffffffff168152602001908152602001600020546106f1919061119b565b6106fb919061120c565b905060008111610740576040517f08c379a000000000000000000000000000000000000000000000000000000000815260040161073790611289565b60405180910390fd5b600060346000600354815260200190815260200160002060003373ffffffffffffffffffffffffffffffffffffffff1673ffffffffffffffffffffffffffffffffffffffff168152602001908152602001600020819055506107a181610b04565b3373ffffffffffffffffffffffffffffffffffffffff167f9826127e01fde6e0bf0cae1bc6f60a33b9c248c825f1adb44dcd4d1214af120082426040516107e99291906112a9565b60405180910390a250565b8060108110610838576040517f08c379a000000000000000000000000000000000000000000000000000000000815260040161082f90610fe5565b60405180910390fd5b60015442111561087d576040517f08c379a00000000000000000000000000000000000000000000000000000000081526004016108749061111d565b60405180910390fd5b600034116108c0576040517f08c379a00000000000000000000000000000000000000000000000000000000081526004016108b79061131e565b60405180910390fd5b6010600354116108cf57600080fd5b34600483601081106108e4576108e361113d565b5b6003020160020160008282546108fa919061133e565b92505081905550346034600084815260200190815260200160002060003373ffffffffffffffffffffffffffffffffffffffff1673ffffffffffffffffffffffffffffffffffffffff1681526020019081526020016000206000828254610961919061133e565b92505081905550346002600082825461097a919061133e565b925050819055503373ffffffffffffffffffffffffffffffffffffffff16827f2f782886d053e48c1e79bc8b8968a0eb61400634c8e481bd6adcf0ef6a67e389346040516109c89190610f54565b60405180910390a35050565b6000806004600354601081106109ed576109ec61113d565b5b600302016002015460025460346000600354815260200190815260200160002060008673ffffffffffffffffffffffffffffffffffffffff1673ffffffffffffffffffffffffffffffffffffffff16815260200190815260200160002054610a55919061119b565b610a5f919061120c565b905080915050919050565b60008054906101000a900473ffffffffffffffffffffffffffffffffffffffff1681565b60035481565b60008160108110610ada576040517f08c379a0000000000000000000000000000000000000000000000000000000008152600401610ad190610fe5565b60405180910390fd5b60048360108110610aee57610aed61113d565b5b6003020160020154915050919050565b60025481565b60003373ffffffffffffffffffffffffffffffffffffffff1682604051610b2a906113a3565b60006040518083038185875af1925050503d8060008114610b67576040519150601f19603f3d011682016040523d82523d6000602084013e610b6c565b606091505b5050905080610bb0576040517f08c379a0000000000000000000000000000000000000000000000000000000008152600401610ba790611404565b60405180910390fd5b5050565b6040518061020001604052806010905b610bcc610be2565b815260200190600190039081610bc45790505090565b60405180606001604052806000815260200160608152602001600081525090565b600080fd5b6000819050919050565b610c1b81610c08565b8114610c2657600080fd5b50565b600081359050610c3881610c12565b92915050565b600060208284031215610c5457610c53610c03565b5b6000610c6284828501610c29565b91505092915050565b600060109050919050565b600081905092915050565b6000819050919050565b610c9481610c08565b82525050565b600081519050919050565b600082825260208201905092915050565b60005b83811015610cd4578082015181840152602081019050610cb9565b60008484015250505050565b6000601f19601f8301169050919050565b6000610cfc82610c9a565b610d068185610ca5565b9350610d16818560208601610cb6565b610d1f81610ce0565b840191505092915050565b6000606083016000830151610d426000860182610c8b565b5060208301518482036020860152610d5a8282610cf1565b9150506040830151610d6f6040860182610c8b565b508091505092915050565b6000610d868383610d2a565b905092915050565b6000602082019050919050565b6000610da682610c6b565b610db08185610c76565b935083602082028501610dc285610c81565b8060005b85811015610dfe5784840389528151610ddf8582610d7a565b9450610dea83610d8e565b925060208a01995050600181019050610dc6565b50829750879550505050505092915050565b60006020820190508181036000830152610e2a8184610d9b565b905092915050565b610e3b81610c08565b82525050565b600082825260208201905092915050565b6000610e5d82610c9a565b610e678185610e41565b9350610e77818560208601610cb6565b610e8081610ce0565b840191505092915050565b6000606082019050610ea06000830186610e32565b8181036020830152610eb28185610e52565b9050610ec16040830184610e32565b949350505050565b600073ffffffffffffffffffffffffffffffffffffffff82169050919050565b6000610ef482610ec9565b9050919050565b610f0481610ee9565b8114610f0f57600080fd5b50565b600081359050610f2181610efb565b92915050565b600060208284031215610f3d57610f3c610c03565b5b6000610f4b84828501610f12565b91505092915050565b6000602082019050610f696000830184610e32565b92915050565b610f7881610ee9565b82525050565b6000602082019050610f936000830184610f6f565b92915050565b7f7465616d204944206d757374206265206265747765656e203020616e64203135600082015250565b6000610fcf602083610e41565b9150610fda82610f99565b602082019050919050565b60006020820190508181036000830152610ffe81610fc2565b9050919050565b7f4f6e6c796f776e65723a2075736572206e6f74206f776e657200000000000000600082015250565b600061103b601983610e41565b915061104682611005565b602082019050919050565b6000602082019050818103600083015261106a8161102e565b9050919050565b7f4e487b7100000000000000000000000000000000000000000000000000000000600052602260045260246000fd5b600060028204905060018216806110b857607f821691505b6020821081036110cb576110ca611071565b5b50919050565b7f426574206f7574206f662074696d652072616e67650000000000000000000000600082015250565b6000611107601583610e41565b9150611112826110d1565b602082019050919050565b60006020820190508181036000830152611136816110fa565b9050919050565b7f4e487b7100000000000000000000000000000000000000000000000000000000600052603260045260246000fd5b7f4e487b7100000000000000000000000000000000000000000000000000000000600052601160045260246000fd5b60006111a682610c08565b91506111b183610c08565b92508282026111bf81610c08565b915082820484148315176111d6576111d561116c565b5b5092915050565b7f4e487b7100000000000000000000000000000000000000000000000000000000600052601260045260246000fd5b600061121782610c08565b915061122283610c08565b925082611232576112316111dd565b5b828204905092915050565b7f6e6f7468696e6720746f20776974686472617700000000000000000000000000600082015250565b6000611273601383610e41565b915061127e8261123d565b602082019050919050565b600060208201905081810360008301526112a281611266565b9050919050565b60006040820190506112be6000830185610e32565b6112cb6020830184610e32565b9392505050565b7f6e6f7468696e6720746f20626574000000000000000000000000000000000000600082015250565b6000611308600e83610e41565b9150611313826112d2565b602082019050919050565b60006020820190508181036000830152611337816112fb565b9050919050565b600061134982610c08565b915061135483610c08565b925082820190508082111561136c5761136b61116c565b5b92915050565b600081905092915050565b50565b600061138d600083611372565b91506113988261137d565b600082019050919050565b60006113ae82611380565b9150819050919050565b7f736f6d657468696e672077656e742077726f6e67000000000000000000000000600082015250565b60006113ee601483610e41565b91506113f9826113b8565b602082019050919050565b6000602082019050818103600083015261141d816113e1565b905091905056fea26469706673582212203c53911b9e2736e632cba1051977ab4874b08e9ef4493119bdb497530e48c75d64736f6c63430008110033",
  "linkReferences": {},
  "deployedLinkReferences": {}
}