{
  "_format": "hh-sol-artifact-1",
  "contractName": "WorldCupBet",
  "sourceName": "contracts/WorldCupBet.sol",
  "abi": [
    {
      "inputs": [
        {
          "internalType": "string[16]",
          "name": "_teamList",
          "type": "string[16]"
        }
      ],
      "stateMutability": "nonpayable",
      "type": "constructor"
    },
    {
      "anonymous": false,
      "inputs": [
        {
          "indexed": false,
          "internalType": "uint256",
          "name": "teamId",
          "type": "uint256"
        }
      ],
      "name": "WorldCupBet__setWinner",
      "type": "event"
    },
    {
      "anonymous": false,
      "inputs": [
        {
          "indexed": true,
          "internalType": "address",
          "name": "user",
          "type": "address"
        },
        {
          "indexed": false,
          "internalType": "uint256",
          "name": "amount",
          "type": "uint256"
        },
        {
          "indexed": false,
          "internalType": "uint256",
          "name": "timestamp",
          "type": "uint256"
        }
      ],
      "name": "WorldCupBet__withdrawEarnings",
      "type": "event"
    },
    {
      "anonymous": false,
      "inputs": [
        {
          "indexed": true,
          "internalType": "uint256",
          "name": "teamId",
          "type": "uint256"
        },
        {
          "indexed": true,
          "internalType": "address",
          "name": "user",
          "type": "address"
        },
        {
          "indexed": false,
          "internalType": "uint256",
          "name": "amountBetted",
          "type": "uint256"
        }
      ],
      "name": "WorldCupBet_newBet",
      "type": "event"
    },
    {
      "inputs": [
        {
          "internalType": "uint256",
          "name": "teamId",
          "type": "uint256"
        }
      ],
      "name": "bet",
      "outputs": [],
      "stateMutability": "payable",
      "type": "function"
    },
    {
      "inputs": [],
      "name": "getTeamList",
      "outputs": [
        {
          "components": [
            {
              "internalType": "uint256",
              "name": "id",
              "type": "uint256"
            },
            {
              "internalType": "string",
              "name": "name",
              "type": "string"
            },
            {
              "internalType": "uint256",
              "name": "amountBetted",
              "type": "uint256"
            }
          ],
          "internalType": "struct WorldCupBet.TeamInfo[16]",
          "name": "",
          "type": "tuple[16]"
        }
      ],
      "stateMutability": "view",
      "type": "function"
    },
    {
      "inputs": [
        {
          "internalType": "uint256",
          "name": "winnerTeamId",
          "type": "uint256"
        }
      ],
      "name": "setWinner",
      "outputs": [],
      "stateMutability": "nonpayable",
      "type": "function"
    },
    {
      "inputs": [],
      "name": "totalBettedAmount",
      "outputs": [
        {
          "internalType": "uint256",
          "name": "",
          "type": "uint256"
        }
      ],
      "stateMutability": "view",
      "type": "function"
    },
    {
      "inputs": [],
      "name": "withdraw",
      "outputs": [],
      "stateMutability": "nonpayable",
      "type": "function"
    }
  ],
  "bytecode": "0x6080604052600060015560646002553480156200001b57600080fd5b50604051620014d5380380620014d58339818101604052810190620000419190620003c2565b336000806101000a81548173ffffffffffffffffffffffffffffffffffffffff021916908373ffffffffffffffffffffffffffffffffffffffff16021790555062000092816200009960201b60201c565b5062000774565b60005b60108110156200014157818160108110620000bc57620000bb62000413565b5b602002015160038260108110620000d857620000d762000413565b5b600302016001019081620000ed91906200068d565b5060006003826010811062000107576200010662000413565b5b600302016002018190555080600382601081106200012a576200012962000413565b5b60030201600001819055508060010190506200009c565b5050565b6000604051905090565b600080fd5b600080fd5b600080fd5b6000601f19601f8301169050919050565b7f4e487b7100000000000000000000000000000000000000000000000000000000600052604160045260246000fd5b620001a9826200015e565b810181811067ffffffffffffffff82111715620001cb57620001ca6200016f565b5b80604052505050565b6000620001e062000145565b9050620001ee82826200019e565b919050565b600067ffffffffffffffff8211156200021157620002106200016f565b5b602082029050919050565b600080fd5b600080fd5b600067ffffffffffffffff8211156200024457620002436200016f565b5b6200024f826200015e565b9050602081019050919050565b60005b838110156200027c5780820151818401526020810190506200025f565b60008484015250505050565b60006200029f620002998462000226565b620001d4565b905082815260208101848484011115620002be57620002bd62000221565b5b620002cb8482856200025c565b509392505050565b600082601f830112620002eb57620002ea62000159565b5b8151620002fd84826020860162000288565b91505092915050565b60006200031d6200031784620001f3565b620001d4565b905080602084028301858111156200033a57620003396200021c565b5b835b818110156200038857805167ffffffffffffffff81111562000363576200036262000159565b5b808601620003728982620002d3565b855260208501945050506020810190506200033c565b5050509392505050565b600082601f830112620003aa57620003a962000159565b5b6010620003b984828562000306565b91505092915050565b600060208284031215620003db57620003da6200014f565b5b600082015167ffffffffffffffff811115620003fc57620003fb62000154565b5b6200040a8482850162000392565b91505092915050565b7f4e487b7100000000000000000000000000000000000000000000000000000000600052603260045260246000fd5b600081519050919050565b7f4e487b7100000000000000000000000000000000000000000000000000000000600052602260045260246000fd5b600060028204905060018216806200049557607f821691505b602082108103620004ab57620004aa6200044d565b5b50919050565b60008190508160005260206000209050919050565b60006020601f8301049050919050565b600082821b905092915050565b600060088302620005157fffffffffffffffffffffffffffffffffffffffffffffffffffffffffffffffff82620004d6565b620005218683620004d6565b95508019841693508086168417925050509392505050565b6000819050919050565b6000819050919050565b60006200056e62000568620005628462000539565b62000543565b62000539565b9050919050565b6000819050919050565b6200058a836200054d565b620005a2620005998262000575565b848454620004e3565b825550505050565b600090565b620005b9620005aa565b620005c68184846200057f565b505050565b5b81811015620005ee57620005e2600082620005af565b600181019050620005cc565b5050565b601f8211156200063d576200060781620004b1565b6200061284620004c6565b8101602085101562000622578190505b6200063a6200063185620004c6565b830182620005cb565b50505b505050565b600082821c905092915050565b6000620006626000198460080262000642565b1980831691505092915050565b60006200067d83836200064f565b9150826002028217905092915050565b620006988262000442565b67ffffffffffffffff811115620006b457620006b36200016f565b5b620006c082546200047c565b620006cd828285620005f2565b600060209050601f831160018114620007055760008415620006f0578287015190505b620006fc85826200066f565b8655506200076c565b601f1984166200071586620004b1565b60005b828110156200073f5784890151825560018201915060208501945060208101905062000718565b868310156200075f57848901516200075b601f8916826200064f565b8355505b6001600288020188555050505b505050505050565b610d5180620007846000396000f3fe60806040526004361061004a5760003560e01c80630df716021461004f5780631165dce2146100785780633ccfd60b146100a35780637365870b146100ba578063a44a44b7146100d6575b600080fd5b34801561005b57600080fd5b5061007660048036038101906100719190610739565b610101565b005b34801561008457600080fd5b5061008d6101df565b60405161009a919061090b565b60405180910390f35b3480156100af57600080fd5b506100b86102d7565b005b6100d460048036038101906100cf9190610739565b610469565b005b3480156100e257600080fd5b506100eb6105f9565b6040516100f8919061093c565b60405180910390f35b8060108110610145576040517f08c379a000000000000000000000000000000000000000000000000000000000815260040161013c906109b4565b60405180910390fd5b60008054906101000a900473ffffffffffffffffffffffffffffffffffffffff1673ffffffffffffffffffffffffffffffffffffffff163373ffffffffffffffffffffffffffffffffffffffff161461019d57600080fd5b816002819055507fc92b66acdde49f2dc954d9687ee90221de05a7649ccfe7f91e746ef8421a589f826040516101d3919061093c565b60405180910390a15050565b6101e76106af565b6003601080602002604051908101604052809291906000905b828210156102ce578382600302016040518060600160405290816000820154815260200160018201805461023390610a03565b80601f016020809104026020016040519081016040528092919081815260200182805461025f90610a03565b80156102ac5780601f10610281576101008083540402835291602001916102ac565b820191906000526020600020905b81548152906001019060200180831161028f57829003601f168201915b5050505050815260200160028201548152505081526020019060010190610200565b50505050905090565b6010600254106102e657600080fd5b60006003600254601081106102fe576102fd610a34565b5b600302016002015460015460336000600254815260200190815260200160002060003373ffffffffffffffffffffffffffffffffffffffff1673ffffffffffffffffffffffffffffffffffffffff168152602001908152602001600020546103669190610a92565b6103709190610b03565b9050600081116103b5576040517f08c379a00000000000000000000000000000000000000000000000000000000081526004016103ac90610b80565b60405180910390fd5b600060336000600254815260200190815260200160002060003373ffffffffffffffffffffffffffffffffffffffff1673ffffffffffffffffffffffffffffffffffffffff16815260200190815260200160002081905550610416816105ff565b3373ffffffffffffffffffffffffffffffffffffffff167f9826127e01fde6e0bf0cae1bc6f60a33b9c248c825f1adb44dcd4d1214af1200824260405161045e929190610ba0565b60405180910390a250565b80601081106104ad576040517f08c379a00000000000000000000000000000000000000000000000000000000081526004016104a4906109b4565b60405180910390fd5b4263639f390011156104f4576040517f08c379a00000000000000000000000000000000000000000000000000000000081526004016104eb90610c15565b60405180910390fd5b346003836010811061050957610508610a34565b5b60030201600201600082825461051f9190610c35565b92505081905550346033600084815260200190815260200160002060003373ffffffffffffffffffffffffffffffffffffffff1673ffffffffffffffffffffffffffffffffffffffff16815260200190815260200160002060008282546105869190610c35565b92505081905550346001600082825461059f9190610c35565b925050819055503373ffffffffffffffffffffffffffffffffffffffff16827f2f782886d053e48c1e79bc8b8968a0eb61400634c8e481bd6adcf0ef6a67e389346040516105ed919061093c565b60405180910390a35050565b60015481565b60003373ffffffffffffffffffffffffffffffffffffffff168260405161062590610c9a565b60006040518083038185875af1925050503d8060008114610662576040519150601f19603f3d011682016040523d82523d6000602084013e610667565b606091505b50509050806106ab576040517f08c379a00000000000000000000000000000000000000000000000000000000081526004016106a290610cfb565b60405180910390fd5b5050565b6040518061020001604052806010905b6106c76106dd565b8152602001906001900390816106bf5790505090565b60405180606001604052806000815260200160608152602001600081525090565b600080fd5b6000819050919050565b61071681610703565b811461072157600080fd5b50565b6000813590506107338161070d565b92915050565b60006020828403121561074f5761074e6106fe565b5b600061075d84828501610724565b91505092915050565b600060109050919050565b600081905092915050565b6000819050919050565b61078f81610703565b82525050565b600081519050919050565b600082825260208201905092915050565b60005b838110156107cf5780820151818401526020810190506107b4565b60008484015250505050565b6000601f19601f8301169050919050565b60006107f782610795565b61080181856107a0565b93506108118185602086016107b1565b61081a816107db565b840191505092915050565b600060608301600083015161083d6000860182610786565b506020830151848203602086015261085582826107ec565b915050604083015161086a6040860182610786565b508091505092915050565b60006108818383610825565b905092915050565b6000602082019050919050565b60006108a182610766565b6108ab8185610771565b9350836020820285016108bd8561077c565b8060005b858110156108f957848403895281516108da8582610875565b94506108e583610889565b925060208a019950506001810190506108c1565b50829750879550505050505092915050565b600060208201905081810360008301526109258184610896565b905092915050565b61093681610703565b82525050565b6000602082019050610951600083018461092d565b92915050565b600082825260208201905092915050565b7f7465616d204944206d757374206265206265747765656e203020616e64203135600082015250565b600061099e602083610957565b91506109a982610968565b602082019050919050565b600060208201905081810360008301526109cd81610991565b9050919050565b7f4e487b7100000000000000000000000000000000000000000000000000000000600052602260045260246000fd5b60006002820490506001821680610a1b57607f821691505b602082108103610a2e57610a2d6109d4565b5b50919050565b7f4e487b7100000000000000000000000000000000000000000000000000000000600052603260045260246000fd5b7f4e487b7100000000000000000000000000000000000000000000000000000000600052601160045260246000fd5b6000610a9d82610703565b9150610aa883610703565b9250828202610ab681610703565b91508282048414831517610acd57610acc610a63565b5b5092915050565b7f4e487b7100000000000000000000000000000000000000000000000000000000600052601260045260246000fd5b6000610b0e82610703565b9150610b1983610703565b925082610b2957610b28610ad4565b5b828204905092915050565b7f6e6f7468696e6720746f20776974686472617700000000000000000000000000600082015250565b6000610b6a601383610957565b9150610b7582610b34565b602082019050919050565b60006020820190508181036000830152610b9981610b5d565b9050919050565b6000604082019050610bb5600083018561092d565b610bc2602083018461092d565b9392505050565b7f426574206f7574206f662074696d652072616e67650000000000000000000000600082015250565b6000610bff601583610957565b9150610c0a82610bc9565b602082019050919050565b60006020820190508181036000830152610c2e81610bf2565b9050919050565b6000610c4082610703565b9150610c4b83610703565b9250828201905080821115610c6357610c62610a63565b5b92915050565b600081905092915050565b50565b6000610c84600083610c69565b9150610c8f82610c74565b600082019050919050565b6000610ca582610c77565b9150819050919050565b7f736f6d657468696e672077656e742077726f6e67000000000000000000000000600082015250565b6000610ce5601483610957565b9150610cf082610caf565b602082019050919050565b60006020820190508181036000830152610d1481610cd8565b905091905056fea2646970667358221220a45a1db50aeb437b5ffe60ecea819ca3170e76bafb8042132900bb3730f4a54864736f6c63430008110033",
  "linkReferences": {},
  "deployedLinkReferences": {}
}